{
  "contractName": "Certificates",
  "abi": [
    {
      "anonymous": false,
      "inputs": [
        {
          "indexed": true,
          "internalType": "uint256",
          "name": "certificate",
          "type": "uint256"
        },
        {
          "indexed": true,
          "internalType": "address",
          "name": "issuer",
          "type": "address"
        },
        {
          "indexed": true,
          "internalType": "address",
          "name": "recipient",
          "type": "address"
        }
      ],
      "name": "CertificateIssued",
      "type": "event"
    },
    {
      "anonymous": false,
      "inputs": [
        {
          "indexed": true,
          "internalType": "address",
          "name": "issuer",
          "type": "address"
        },
        {
          "indexed": false,
          "internalType": "string",
          "name": "_ipfsHash",
          "type": "string"
        }
      ],
      "name": "CertificateRegistered",
      "type": "event"
    },
    {
      "anonymous": false,
      "inputs": [
        {
          "indexed": true,
          "internalType": "address",
          "name": "issuer",
          "type": "address"
        },
        {
          "indexed": false,
          "internalType": "string",
          "name": "_ipfsHash",
          "type": "string"
        }
      ],
      "name": "IssuerRegistered",
      "type": "event"
    },
    {
      "anonymous": false,
      "inputs": [
        {
          "indexed": true,
          "internalType": "address",
          "name": "recipient",
          "type": "address"
        },
        {
          "indexed": false,
          "internalType": "string",
          "name": "_ipfsHash",
          "type": "string"
        }
      ],
      "name": "RecipientRegistered",
      "type": "event"
    },
    {
      "inputs": [],
      "name": "certificate_counter",
      "outputs": [
        {
          "internalType": "uint256",
          "name": "",
          "type": "uint256"
        }
      ],
      "stateMutability": "view",
      "type": "function",
      "constant": true
    },
    {
      "inputs": [
        {
          "internalType": "address",
          "name": "",
          "type": "address"
        }
      ],
      "name": "issuer",
      "outputs": [
        {
          "internalType": "string",
          "name": "",
          "type": "string"
        }
      ],
      "stateMutability": "view",
      "type": "function",
      "constant": true
    },
    {
      "inputs": [
        {
          "internalType": "string",
          "name": "",
          "type": "string"
        }
      ],
      "name": "issuerOfCertificate",
      "outputs": [
        {
          "internalType": "address",
          "name": "",
          "type": "address"
        }
      ],
      "stateMutability": "view",
      "type": "function",
      "constant": true
    },
    {
      "inputs": [
        {
          "internalType": "string",
          "name": "issuerPK",
          "type": "string"
        }
      ],
      "name": "registerIssuer",
      "outputs": [],
      "stateMutability": "nonpayable",
      "type": "function"
    },
    {
      "inputs": [
        {
          "internalType": "string",
          "name": "studentPK",
          "type": "string"
        }
      ],
      "name": "registerRecipient",
      "outputs": [],
      "stateMutability": "nonpayable",
      "type": "function"
    },
    {
      "inputs": [
        {
          "internalType": "string",
          "name": "_ipfsHash",
          "type": "string"
        }
      ],
      "name": "registerCertificate",
      "outputs": [],
      "stateMutability": "nonpayable",
      "type": "function"
    },
    {
      "inputs": [
        {
          "internalType": "address",
          "name": "_recipient",
          "type": "address"
        },
        {
          "internalType": "string",
          "name": "certificate_hash",
          "type": "string"
        }
      ],
      "name": "issueCertificate",
      "outputs": [],
      "stateMutability": "nonpayable",
      "type": "function"
    },
    {
      "inputs": [
        {
          "internalType": "string",
          "name": "certificate_hash",
          "type": "string"
        }
      ],
      "name": "verify",
      "outputs": [],
      "stateMutability": "nonpayable",
      "type": "function"
    },
    {
      "inputs": [
        {
          "internalType": "string",
          "name": "_ipfsHash",
          "type": "string"
        }
      ],
      "name": "getIssuerOfCertificate",
      "outputs": [
        {
          "internalType": "address",
          "name": "",
          "type": "address"
        }
      ],
      "stateMutability": "view",
      "type": "function",
      "constant": true
    },
    {
      "inputs": [
        {
          "internalType": "address",
          "name": "_issuer",
          "type": "address"
        }
      ],
      "name": "getIssuer",
      "outputs": [
        {
          "internalType": "string",
          "name": "",
          "type": "string"
        }
      ],
      "stateMutability": "view",
      "type": "function",
      "constant": true
    },
    {
      "inputs": [
        {
          "internalType": "address",
          "name": "_recipient",
          "type": "address"
        }
      ],
      "name": "getRecipient",
      "outputs": [
        {
          "internalType": "string",
          "name": "",
          "type": "string"
        }
      ],
      "stateMutability": "view",
      "type": "function",
      "constant": true
    },
    {
      "inputs": [
        {
          "internalType": "string",
          "name": "_ipfsHash",
          "type": "string"
        }
      ],
      "name": "getAllRecipientOfCertificate",
      "outputs": [
        {
          "internalType": "address[]",
          "name": "",
          "type": "address[]"
        }
      ],
      "stateMutability": "view",
      "type": "function",
      "constant": true
    },
    {
      "inputs": [
        {
          "internalType": "address",
          "name": "_recipient",
          "type": "address"
        }
      ],
      "name": "getRecipientCertificates",
      "outputs": [
        {
          "internalType": "uint256[]",
          "name": "",
          "type": "uint256[]"
        }
      ],
      "stateMutability": "view",
      "type": "function",
      "constant": true
    },
    {
      "inputs": [
        {
          "internalType": "address",
          "name": "_issuer",
          "type": "address"
        }
      ],
      "name": "getIssuerCertificates",
      "outputs": [
        {
          "internalType": "uint256[]",
          "name": "",
          "type": "uint256[]"
        }
      ],
      "stateMutability": "view",
      "type": "function",
      "constant": true
    },
    {
      "inputs": [
        {
          "internalType": "uint256",
          "name": "_id",
          "type": "uint256"
        }
      ],
      "name": "getCertificateIdentifier",
      "outputs": [
        {
          "internalType": "string",
          "name": "",
          "type": "string"
        },
        {
          "internalType": "uint256",
          "name": "",
          "type": "uint256"
        },
        {
          "internalType": "address",
          "name": "",
          "type": "address"
        },
        {
          "internalType": "address",
          "name": "",
          "type": "address"
        }
      ],
      "stateMutability": "view",
      "type": "function",
      "constant": true
    }
  ],
  "bytecode": "0x608060405234801561001057600080fd5b506127fe806100206000396000f3fe608060405234801561001057600080fd5b50600436106100f55760003560e01c80637a8ee24b11610097578063bb9c6c3e11610066578063bb9c6c3e1461091f578063ca93954f146109da578063dda9f46d14610a95578063fef03da314610ba5576100f5565b80637a8ee24b146106175780638e959b8b146106b0578063b7716007146107ab578063bb721aab14610844576100f5565b806362812a39116100d357806362812a391461036d578063632d9ce41461042a5780636f4581dc1461053e57806370b09e24146105f9576100f5565b806351eeb551146100fa57806355ff0e76146101b55780635711caaf146102b0575b600080fd5b6101b36004803603602081101561011057600080fd5b810190808035906020019064010000000081111561012d57600080fd5b82018360208201111561013f57600080fd5b8035906020019184600183028401116401000000008311171561016157600080fd5b91908080601f016020809104026020016040519081016040528093929190818152602001838380828437600081840152601f19601f820116905080830192505050505050509192919290505050610c62565b005b61026e600480360360208110156101cb57600080fd5b81019080803590602001906401000000008111156101e857600080fd5b8201836020820111156101fa57600080fd5b8035906020019184600183028401116401000000008311171561021c57600080fd5b91908080601f016020809104026020016040519081016040528093929190818152602001838380828437600081840152601f19601f820116905080830192505050505050509192919290505050610e69565b604051808273ffffffffffffffffffffffffffffffffffffffff1673ffffffffffffffffffffffffffffffffffffffff16815260200191505060405180910390f35b6102f2600480360360208110156102c657600080fd5b81019080803573ffffffffffffffffffffffffffffffffffffffff169060200190929190505050610efc565b6040518080602001828103825283818151815260200191508051906020019080838360005b83811015610332578082015181840152602081019050610317565b50505050905090810190601f16801561035f5780820380516001836020036101000a031916815260200191505b509250505060405180910390f35b6103af6004803603602081101561038357600080fd5b81019080803573ffffffffffffffffffffffffffffffffffffffff169060200190929190505050610fac565b6040518080602001828103825283818151815260200191508051906020019080838360005b838110156103ef5780820151818401526020810190506103d4565b50505050905090810190601f16801561041c5780820380516001836020036101000a031916815260200191505b509250505060405180910390f35b6104566004803603602081101561044057600080fd5b810190808035906020019092919050505061108d565b60405180806020018581526020018473ffffffffffffffffffffffffffffffffffffffff1673ffffffffffffffffffffffffffffffffffffffff1681526020018373ffffffffffffffffffffffffffffffffffffffff1673ffffffffffffffffffffffffffffffffffffffff168152602001828103825286818151815260200191508051906020019080838360005b838110156105005780820151818401526020810190506104e5565b50505050905090810190601f16801561052d5780820380516001836020036101000a031916815260200191505b509550505050505060405180910390f35b6105f76004803603602081101561055457600080fd5b810190808035906020019064010000000081111561057157600080fd5b82018360208201111561058357600080fd5b803590602001918460018302840111640100000000831117156105a557600080fd5b91908080601f016020809104026020016040519081016040528093929190818152602001838380828437600081840152601f19601f82011690508083019250505050505050919291929050505061123b565b005b610601611463565b6040518082815260200191505060405180910390f35b6106596004803603602081101561062d57600080fd5b81019080803573ffffffffffffffffffffffffffffffffffffffff169060200190929190505050611469565b6040518080602001828103825283818151815260200191508051906020019060200280838360005b8381101561069c578082015181840152602081019050610681565b505050509050019250505060405180910390f35b610769600480360360208110156106c657600080fd5b81019080803590602001906401000000008111156106e357600080fd5b8201836020820111156106f557600080fd5b8035906020019184600183028401116401000000008311171561071757600080fd5b91908080601f016020809104026020016040519081016040528093929190818152602001838380828437600081840152601f19601f820116905080830192505050505050509192919290505050611500565b604051808273ffffffffffffffffffffffffffffffffffffffff1673ffffffffffffffffffffffffffffffffffffffff16815260200191505060405180910390f35b6107ed600480360360208110156107c157600080fd5b81019080803573ffffffffffffffffffffffffffffffffffffffff169060200190929190505050611549565b6040518080602001828103825283818151815260200191508051906020019060200280838360005b83811015610830578082015181840152602081019050610815565b505050509050019250505060405180910390f35b61091d6004803603604081101561085a57600080fd5b81019080803573ffffffffffffffffffffffffffffffffffffffff1690602001909291908035906020019064010000000081111561089757600080fd5b8201836020820111156108a957600080fd5b803590602001918460018302840111640100000000831117156108cb57600080fd5b91908080601f016020809104026020016040519081016040528093929190818152602001838380828437600081840152601f19601f8201169050808301925050505050505091929192905050506115e0565b005b6109d86004803603602081101561093557600080fd5b810190808035906020019064010000000081111561095257600080fd5b82018360208201111561096457600080fd5b8035906020019184600183028401116401000000008311171561098657600080fd5b91908080601f016020809104026020016040519081016040528093929190818152602001838380828437600081840152601f19601f820116905080830192505050505050509192919290505050611c8f565b005b610a93600480360360208110156109f057600080fd5b8101908080359060200190640100000000811115610a0d57600080fd5b820183602082011115610a1f57600080fd5b80359060200191846001830284011164010000000083111715610a4157600080fd5b91908080601f016020809104026020016040519081016040528093929190818152602001838380828437600081840152601f19601f820116905080830192505050505050509192919290505050612167565b005b610b4e60048036036020811015610aab57600080fd5b8101908080359060200190640100000000811115610ac857600080fd5b820183602082011115610ada57600080fd5b80359060200191846001830284011164010000000083111715610afc57600080fd5b91908080601f016020809104026020016040519081016040528093929190818152602001838380828437600081840152601f19601f82011690508083019250505050505050919291929050505061238f565b6040518080602001828103825283818151815260200191508051906020019060200280838360005b83811015610b91578082015181840152602081019050610b76565b505050509050019250505060405180910390f35b610be760048036036020811015610bbb57600080fd5b81019080803573ffffffffffffffffffffffffffffffffffffffff169060200190929190505050612486565b6040518080602001828103825283818151815260200191508051906020019080838360005b83811015610c27578082015181840152602081019050610c0c565b50505050905090810190601f168015610c545780820380516001836020036101000a031916815260200191505b509250505060405180910390f35b60011515600860003373ffffffffffffffffffffffffffffffffffffffff1673ffffffffffffffffffffffffffffffffffffffff16815260200190815260200160002060009054906101000a900460ff16151514610d0b576040517f08c379a000000000000000000000000000000000000000000000000000000000815260040180806020018281038252602f815260200180612773602f913960400191505060405180910390fd5b336001826040518082805190602001908083835b60208310610d425780518252602082019150602081019050602083039250610d1f565b6001836020036101000a038019825116818451168082178552505050505050905001915050908152602001604051809103902060006101000a81548173ffffffffffffffffffffffffffffffffffffffff021916908373ffffffffffffffffffffffffffffffffffffffff1602179055503373ffffffffffffffffffffffffffffffffffffffff167fd44cad3cdd419006c9f1ed0038d0743151290b6bf6168a5b374344aeb501c7a8826040518080602001828103825283818151815260200191508051906020019080838360005b83811015610e2c578082015181840152602081019050610e11565b50505050905090810190601f168015610e595780820380516001836020036101000a031916815260200191505b509250505060405180910390a250565b60006001826040518082805190602001908083835b60208310610ea15780518252602082019150602081019050602083039250610e7e565b6001836020036101000a038019825116818451168082178552505050505050905001915050908152602001604051809103902060009054906101000a900473ffffffffffffffffffffffffffffffffffffffff169050919050565b60026020528060005260406000206000915090508054600181600116156101000203166002900480601f016020809104026020016040519081016040528092919081815260200182805460018160011615610100020316600290048015610fa45780601f10610f7957610100808354040283529160200191610fa4565b820191906000526020600020905b815481529060010190602001808311610f8757829003601f168201915b505050505081565b6060600360008373ffffffffffffffffffffffffffffffffffffffff1673ffffffffffffffffffffffffffffffffffffffff1681526020019081526020016000208054600181600116156101000203166002900480601f0160208091040260200160405190810160405280929190818152602001828054600181600116156101000203166002900480156110815780601f1061105657610100808354040283529160200191611081565b820191906000526020600020905b81548152906001019060200180831161106457829003601f168201915b50505050509050919050565b6060600080600061109c612567565b60056000878152602001908152602001600020604051806080016040529081600082018054600181600116156101000203166002900480601f0160208091040260200160405190810160405280929190818152602001828054600181600116156101000203166002900480156111535780601f1061112857610100808354040283529160200191611153565b820191906000526020600020905b81548152906001019060200180831161113657829003601f168201915b50505050508152602001600182015481526020016002820160009054906101000a900473ffffffffffffffffffffffffffffffffffffffff1673ffffffffffffffffffffffffffffffffffffffff1673ffffffffffffffffffffffffffffffffffffffff1681526020016003820160009054906101000a900473ffffffffffffffffffffffffffffffffffffffff1673ffffffffffffffffffffffffffffffffffffffff1673ffffffffffffffffffffffffffffffffffffffff1681525050905080600001518160200151826040015183606001518393509450945094509450509193509193565b60001515600860003373ffffffffffffffffffffffffffffffffffffffff1673ffffffffffffffffffffffffffffffffffffffff16815260200190815260200160002060009054906101000a900460ff16151514611301576040517f08c379a00000000000000000000000000000000000000000000000000000000081526004018080602001828103825260198152602001807f49737375657220616c726561647920726567697374657265640000000000000081525060200191505060405180910390fd5b80600260003373ffffffffffffffffffffffffffffffffffffffff1673ffffffffffffffffffffffffffffffffffffffff16815260200190815260200160002090805190602001906113549291906125bb565b506001600860003373ffffffffffffffffffffffffffffffffffffffff1673ffffffffffffffffffffffffffffffffffffffff16815260200190815260200160002060006101000a81548160ff0219169083151502179055503373ffffffffffffffffffffffffffffffffffffffff167fc0e782e5ce31b3a8ed34a04353667fa795030402831742c8a4b938c2c96ef033826040518080602001828103825283818151815260200191508051906020019080838360005b8381101561142657808201518184015260208101905061140b565b50505050905090810190601f1680156114535780820380516001836020036101000a031916815260200191505b509250505060405180910390a250565b60005481565b6060600760008373ffffffffffffffffffffffffffffffffffffffff1673ffffffffffffffffffffffffffffffffffffffff1681526020019081526020016000208054806020026020016040519081016040528092919081815260200182805480156114f457602002820191906000526020600020905b8154815260200190600101908083116114e0575b50505050509050919050565b6001818051602081018201805184825260208301602085012081835280955050505050506000915054906101000a900473ffffffffffffffffffffffffffffffffffffffff1681565b6060600660008373ffffffffffffffffffffffffffffffffffffffff1673ffffffffffffffffffffffffffffffffffffffff1681526020019081526020016000208054806020026020016040519081016040528092919081815260200182805480156115d457602002820191906000526020600020905b8154815260200190600101908083116115c0575b50505050509050919050565b60011515600860003373ffffffffffffffffffffffffffffffffffffffff1673ffffffffffffffffffffffffffffffffffffffff16815260200190815260200160002060009054906101000a900460ff16151514611689576040517f08c379a000000000000000000000000000000000000000000000000000000000815260040180806020018281038252602f815260200180612773602f913960400191505060405180910390fd5b60011515600960008473ffffffffffffffffffffffffffffffffffffffff1673ffffffffffffffffffffffffffffffffffffffff16815260200190815260200160002060009054906101000a900460ff16151514611732576040517f08c379a00000000000000000000000000000000000000000000000000000000081526004018080602001828103825260338152602001806127106033913960400191505060405180910390fd5b3373ffffffffffffffffffffffffffffffffffffffff166001826040518082805190602001908083835b6020831061177f578051825260208201915060208101905060208303925061175c565b6001836020036101000a038019825116818451168082178552505050505050905001915050908152602001604051809103902060009054906101000a900473ffffffffffffffffffffffffffffffffffffffff1673ffffffffffffffffffffffffffffffffffffffff161461183f576040517f08c379a000000000000000000000000000000000000000000000000000000000815260040180806020018281038252602f8152602001806126e1602f913960400191505060405180910390fd5b60011515600a826040518082805190602001908083835b602083106118795780518252602082019150602081019050602083039250611856565b6001836020036101000a038019825116818451168082178552505050505050905001915050908152602001604051809103902060009054906101000a900460ff1615151461192f576040517f08c379a00000000000000000000000000000000000000000000000000000000081526004018080602001828103825260188152602001807f4365727469666963617465206e6f74207665726966696564000000000000000081525060200191505060405180910390fd5b611937612567565b6000806000815460010191905081905590508282600001819052504282602001818152505033826040019073ffffffffffffffffffffffffffffffffffffffff16908173ffffffffffffffffffffffffffffffffffffffff168152505083826060019073ffffffffffffffffffffffffffffffffffffffff16908173ffffffffffffffffffffffffffffffffffffffff1681525050816005600083815260200190815260200160002060008201518160000190805190602001906119fc92919061263b565b506020820151816001015560408201518160020160006101000a81548173ffffffffffffffffffffffffffffffffffffffff021916908373ffffffffffffffffffffffffffffffffffffffff16021790555060608201518160030160006101000a81548173ffffffffffffffffffffffffffffffffffffffff021916908373ffffffffffffffffffffffffffffffffffffffff160217905550905050600660008573ffffffffffffffffffffffffffffffffffffffff1673ffffffffffffffffffffffffffffffffffffffff168152602001908152602001600020819080600181540180825580915050600190039060005260206000200160009091909190915055600760003373ffffffffffffffffffffffffffffffffffffffff1673ffffffffffffffffffffffffffffffffffffffff1681526020019081526020016000208190806001815401808255809150506001900390600052602060002001600090919091909150556004836040518082805190602001908083835b60208310611b9a5780518252602082019150602081019050602083039250611b77565b6001836020036101000a0380198251168184511680821785525050505050509050019150509081526020016040518091039020849080600181540180825580915050600190039060005260206000200160009091909190916101000a81548173ffffffffffffffffffffffffffffffffffffffff021916908373ffffffffffffffffffffffffffffffffffffffff1602179055508373ffffffffffffffffffffffffffffffffffffffff163373ffffffffffffffffffffffffffffffffffffffff16827fb16be250054d8205b809d26284c657602bbfc725cfc68daca4dc60a78ff137a760405160405180910390a450505050565b60011515600960003373ffffffffffffffffffffffffffffffffffffffff1673ffffffffffffffffffffffffffffffffffffffff16815260200190815260200160002060009054906101000a900460ff16151514611d38576040517f08c379a00000000000000000000000000000000000000000000000000000000081526004018080602001828103825260308152602001806127436030913960400191505060405180910390fd5b600073ffffffffffffffffffffffffffffffffffffffff166001826040518082805190602001908083835b60208310611d865780518252602082019150602081019050602083039250611d63565b6001836020036101000a038019825116818451168082178552505050505050905001915050908152602001604051809103902060009054906101000a900473ffffffffffffffffffffffffffffffffffffffff1673ffffffffffffffffffffffffffffffffffffffff161415611e64576040517f08c379a000000000000000000000000000000000000000000000000000000000815260040180806020018281038252601a8152602001807f4365727469666963617465206e6f74207265676973746572656400000000000081525060200191505060405180910390fd5b60006004826040518082805190602001908083835b60208310611e9c5780518252602082019150602081019050602083039250611e79565b6001836020036101000a03801982511681845116808217855250505050505090500191505090815260200160405180910390208054905011611f29576040517f08c379a00000000000000000000000000000000000000000000000000000000081526004018080602001828103825260278152602001806127a26027913960400191505060405180910390fd5b60001515600a826040518082805190602001908083835b60208310611f635780518252602082019150602081019050602083039250611f40565b6001836020036101000a038019825116818451168082178552505050505050905001915050908152602001604051809103902060009054906101000a900460ff16151514156120e2576001600a826040518082805190602001908083835b60208310611fe45780518252602082019150602081019050602083039250611fc1565b6001836020036101000a038019825116818451168082178552505050505050905001915050908152602001604051809103902060006101000a81548160ff0219169083151502179055503373ffffffffffffffffffffffffffffffffffffffff167fd44cad3cdd419006c9f1ed0038d0743151290b6bf6168a5b374344aeb501c7a8826040518080602001828103825283818151815260200191508051906020019080838360005b838110156120a757808201518184015260208101905061208c565b50505050905090810190601f1680156120d45780820380516001836020036101000a031916815260200191505b509250505060405180910390a25b6001600a826040518082805190602001908083835b6020831061211a57805182526020820191506020810190506020830392506120f7565b6001836020036101000a038019825116818451168082178552505050505050905001915050908152602001604051809103902060006101000a81548160ff02191690831515021790555050565b60001515600960003373ffffffffffffffffffffffffffffffffffffffff1673ffffffffffffffffffffffffffffffffffffffff16815260200190815260200160002060009054906101000a900460ff1615151461222d576040517f08c379a000000000000000000000000000000000000000000000000000000000815260040180806020018281038252601c8152602001807f526563697069656e7420616c726561647920726567697374657265640000000081525060200191505060405180910390fd5b80600360003373ffffffffffffffffffffffffffffffffffffffff1673ffffffffffffffffffffffffffffffffffffffff16815260200190815260200160002090805190602001906122809291906125bb565b506001600960003373ffffffffffffffffffffffffffffffffffffffff1673ffffffffffffffffffffffffffffffffffffffff16815260200190815260200160002060006101000a81548160ff0219169083151502179055503373ffffffffffffffffffffffffffffffffffffffff167f540051ab245198442259c711b2b55dddc858ac44be985b22fca4dba2d00572b0826040518080602001828103825283818151815260200191508051906020019080838360005b83811015612352578082015181840152602081019050612337565b50505050905090810190601f16801561237f5780820380516001836020036101000a031916815260200191505b509250505060405180910390a250565b60606004826040518082805190602001908083835b602083106123c757805182526020820191506020810190506020830392506123a4565b6001836020036101000a038019825116818451168082178552505050505050905001915050908152602001604051809103902080548060200260200160405190810160405280929190818152602001828054801561247a57602002820191906000526020600020905b8160009054906101000a900473ffffffffffffffffffffffffffffffffffffffff1673ffffffffffffffffffffffffffffffffffffffff1681526020019060010190808311612430575b50505050509050919050565b6060600260008373ffffffffffffffffffffffffffffffffffffffff1673ffffffffffffffffffffffffffffffffffffffff1681526020019081526020016000208054600181600116156101000203166002900480601f01602080910402602001604051908101604052809291908181526020018280546001816001161561010002031660029004801561255b5780601f106125305761010080835404028352916020019161255b565b820191906000526020600020905b81548152906001019060200180831161253e57829003601f168201915b50505050509050919050565b60405180608001604052806060815260200160008152602001600073ffffffffffffffffffffffffffffffffffffffff168152602001600073ffffffffffffffffffffffffffffffffffffffff1681525090565b828054600181600116156101000203166002900490600052602060002090601f016020900481019282601f106125fc57805160ff191683800117855561262a565b8280016001018555821561262a579182015b8281111561262957825182559160200191906001019061260e565b5b50905061263791906126bb565b5090565b828054600181600116156101000203166002900490600052602060002090601f016020900481019282601f1061267c57805160ff19168380011785556126aa565b828001600101855582156126aa579182015b828111156126a957825182559160200191906001019061268e565b5b5090506126b791906126bb565b5090565b6126dd91905b808211156126d95760008160009055506001016126c1565b5090565b9056fe497373756572206e6f74207265676973746572656420746f2069737375652074686973206365727469666963617465526563697069656e74206e6f74207265676973746572656420746f206265206973737565642061206365727469666963617465526563697069656e74206e6f74207265676973746572656420746f207665726966792061206365727469666963617465497373756572206e6f74207265676973746572656420746f20726567697374657220612063657274696669636174654365727469666963617465206e6f742069737375656420746f20616e7920726563697069656e74a26469706673582212203d8d0de98c20848ca73ea424a1f870e26d73a55a55673e5f30c99a5b3dd4503e64736f6c63430006010033",
  "source": "// SPDX-License-Identifier: MIT\r\npragma solidity >=0.4.22 <0.9.0;\r\n\r\ncontract Certificates {\r\n    uint public certificate_counter;\r\n\r\n    // Structs\r\n    struct Certificate {\r\n        string ipfsHash;\r\n        uint timeOfIssue;\r\n        address issuer;\r\n        address recipient;\r\n    }\r\n\r\n    // Mappings\r\n    mapping(string => address) public issuerOfCertificate;\r\n    mapping(address => string) public issuer;\r\n    mapping(address => string) recipient;\r\n    mapping(string => address[]) allRecipientOfCertificate;\r\n    mapping(uint => Certificate) certificateIdentifier;\r\n    mapping(address => uint[]) recipientCertificates;\r\n    mapping(address => uint[]) issuerCertificates;\r\n    mapping(address => bool) isIssuer;\r\n    mapping(address => bool) isRecipient;\r\n    mapping(string => bool) isVerified;\r\n\r\n    // Events\r\n    event IssuerRegistered(address indexed issuer, string _ipfsHash);\r\n    event RecipientRegistered(address indexed recipient, string _ipfsHash);\r\n    event CertificateRegistered(\r\n      address indexed issuer, string _ipfsHash\r\n    );\r\n    event CertificateIssued(uint indexed certificate, address indexed issuer, address indexed recipient);\r\n\r\n    // Functions\r\n    function registerIssuer(string memory issuerPK) public {\r\n        require((isIssuer[msg.sender] == false), \"Issuer already registered\");\r\n        issuer[msg.sender] = issuerPK;\r\n        isIssuer[msg.sender] = true;\r\n        emit IssuerRegistered(msg.sender, issuerPK);\r\n    }\r\n\r\n    function registerRecipient(string memory studentPK) public {\r\n        require(isRecipient[msg.sender] == false, \"Recipient already registered\");\r\n        recipient[msg.sender] = studentPK;\r\n        isRecipient[msg.sender] = true;\r\n        emit RecipientRegistered(msg.sender, studentPK);\r\n    }\r\n\r\n    function registerCertificate(string memory _ipfsHash) public {\r\n        require(isIssuer[msg.sender] == true, \"Issuer not registered to register a certificate\");\r\n        issuerOfCertificate[_ipfsHash] = msg.sender;\r\n        emit CertificateRegistered(msg.sender, _ipfsHash);\r\n    }\r\n\r\n    function issueCertificate(address _recipient, string memory certificate_hash) public {\r\n        require(isIssuer[msg.sender] == true, \"Issuer not registered to register a certificate\");\r\n        require(isRecipient[_recipient] == true, \"Recipient not registered to be issued a certificate\");\r\n        require(issuerOfCertificate[certificate_hash] == msg.sender, \"Issuer not registered to issue this certificate\");\r\n        require(isVerified[certificate_hash] == true, \"Certificate not verified\");\r\n        Certificate memory cert;\r\n        uint id = ++certificate_counter;\r\n        cert.ipfsHash = certificate_hash;\r\n        cert.timeOfIssue = block.timestamp;\r\n        cert.issuer = msg.sender;\r\n        cert.recipient = _recipient;\r\n        certificateIdentifier[id] = cert;\r\n        recipientCertificates[_recipient].push(id);\r\n        issuerCertificates[msg.sender].push(id);\r\n        allRecipientOfCertificate[certificate_hash].push(_recipient);\r\n\r\n        emit CertificateIssued(id, msg.sender, _recipient);\r\n    }\r\n    \r\n    function verify(string memory certificate_hash) public {\r\n        require(isRecipient[msg.sender] == true, \"Recipient not registered to verify a certificate\");\r\n        require(issuerOfCertificate[certificate_hash] != address(0), \"Certificate not registered\");\r\n        require(allRecipientOfCertificate[certificate_hash].length > 0, \"Certificate not issued to any recipient\");\r\n        if(isVerified[certificate_hash] == false) {\r\n            isVerified[certificate_hash] = true;\r\n            emit CertificateRegistered(msg.sender, certificate_hash);\r\n        }\r\n        isVerified[certificate_hash] = true;\r\n    }\r\n\r\n    function getIssuerOfCertificate(string memory _ipfsHash) public view returns (address) {\r\n        return issuerOfCertificate[_ipfsHash];\r\n    }\r\n\r\n    function getIssuer(address _issuer) public view returns (string memory) {\r\n        return issuer[_issuer];\r\n    }\r\n\r\n    function getRecipient(address _recipient) public view returns (string memory) {\r\n        return recipient[_recipient];\r\n    }\r\n\r\n    function getAllRecipientOfCertificate(string memory _ipfsHash) public view returns (address[] memory) {\r\n        return allRecipientOfCertificate[_ipfsHash];\r\n    }\r\n\r\n    function getRecipientCertificates(address _recipient) public view returns (uint[] memory) {\r\n        return recipientCertificates[_recipient];\r\n    }\r\n\r\n    function getIssuerCertificates(address _issuer) public view returns (uint[] memory) {\r\n        return issuerCertificates[_issuer];\r\n    }\r\n\r\n    function getCertificateIdentifier(uint _id) public view returns (string memory, uint, address, address){\r\n        Certificate memory cert = certificateIdentifier[_id];\r\n        return (cert.ipfsHash, cert.timeOfIssue, cert.issuer, cert.recipient);\r\n    }\r\n\r\n}",
  "sourcePath": "A:\\BTP-BlockChain-Certificate-Management\\contracts\\Certificates.sol",
  "compiler": {
    "name": "solc",
    "version": "0.6.1+commit.e6f7d5a4.Emscripten.clang"
  },
  "schemaVersion": "3.4.3",
  "updatedAt": "2021-12-12T10:58:45.670Z",
  "networkType": "ethereum",
  "devdoc": {
    "methods": {}
  },
  "userdoc": {
    "methods": {}
  }
}