{
  "contractName": "Certificates",
  "abi": [
    {
      "anonymous": false,
      "inputs": [
        {
          "indexed": true,
          "internalType": "uint256",
          "name": "certificate",
          "type": "uint256"
        },
        {
          "indexed": true,
          "internalType": "address",
          "name": "issuer",
          "type": "address"
        },
        {
          "indexed": true,
          "internalType": "address",
          "name": "recipient",
          "type": "address"
        }
      ],
      "name": "CertificateIssued",
      "type": "event"
    },
    {
      "anonymous": false,
      "inputs": [
        {
          "indexed": true,
          "internalType": "address",
          "name": "issuer",
          "type": "address"
        },
        {
          "indexed": false,
          "internalType": "string",
          "name": "_ipfsHash",
          "type": "string"
        }
      ],
      "name": "CertificateRegistered",
      "type": "event"
    },
    {
      "anonymous": false,
      "inputs": [
        {
          "indexed": true,
          "internalType": "address",
          "name": "issuer",
          "type": "address"
        },
        {
          "indexed": false,
          "internalType": "string",
          "name": "_ipfsHash",
          "type": "string"
        }
      ],
      "name": "CertificateVerified",
      "type": "event"
    },
    {
      "anonymous": false,
      "inputs": [
        {
          "indexed": true,
          "internalType": "address",
          "name": "issuer",
          "type": "address"
        },
        {
          "indexed": true,
          "internalType": "address",
          "name": "issuerPK",
          "type": "address"
        }
      ],
      "name": "IssuerRegistered",
      "type": "event"
    },
    {
      "anonymous": false,
      "inputs": [
        {
          "indexed": true,
          "internalType": "address",
          "name": "recipient",
          "type": "address"
        },
        {
          "indexed": false,
          "internalType": "address",
          "name": "studentPK",
          "type": "address"
        }
      ],
      "name": "RecipientRegistered",
      "type": "event"
    },
    {
      "inputs": [],
      "name": "certificate_counter",
      "outputs": [
        {
          "internalType": "uint256",
          "name": "",
          "type": "uint256"
        }
      ],
      "stateMutability": "view",
      "type": "function",
      "constant": true
    },
    {
      "inputs": [
        {
          "internalType": "address",
          "name": "",
          "type": "address"
        }
      ],
      "name": "issuer",
      "outputs": [
        {
          "internalType": "address",
          "name": "",
          "type": "address"
        }
      ],
      "stateMutability": "view",
      "type": "function",
      "constant": true
    },
    {
      "inputs": [
        {
          "internalType": "string",
          "name": "",
          "type": "string"
        }
      ],
      "name": "issuerOfCertificate",
      "outputs": [
        {
          "internalType": "address",
          "name": "",
          "type": "address"
        }
      ],
      "stateMutability": "view",
      "type": "function",
      "constant": true
    },
    {
      "inputs": [
        {
          "internalType": "address",
          "name": "issuerPK",
          "type": "address"
        }
      ],
      "name": "registerIssuer",
      "outputs": [],
      "stateMutability": "nonpayable",
      "type": "function"
    },
    {
      "inputs": [
        {
          "internalType": "address",
          "name": "studentPK",
          "type": "address"
        }
      ],
      "name": "registerRecipient",
      "outputs": [],
      "stateMutability": "nonpayable",
      "type": "function"
    },
    {
      "inputs": [
        {
          "internalType": "string",
          "name": "_ipfsHash",
          "type": "string"
        }
      ],
      "name": "registerCertificate",
      "outputs": [],
      "stateMutability": "nonpayable",
      "type": "function"
    },
    {
      "inputs": [
        {
          "internalType": "address",
          "name": "_recipient",
          "type": "address"
        },
        {
          "internalType": "string",
          "name": "certificate_hash",
          "type": "string"
        }
      ],
      "name": "issueCertificate",
      "outputs": [],
      "stateMutability": "nonpayable",
      "type": "function"
    },
    {
      "inputs": [
        {
          "internalType": "string",
          "name": "certificate_hash",
          "type": "string"
        }
      ],
      "name": "verify",
      "outputs": [],
      "stateMutability": "nonpayable",
      "type": "function"
    },
    {
      "inputs": [
        {
          "internalType": "string",
          "name": "_ipfsHash",
          "type": "string"
        }
      ],
      "name": "getIssuerOfCertificate",
      "outputs": [
        {
          "internalType": "address",
          "name": "",
          "type": "address"
        }
      ],
      "stateMutability": "view",
      "type": "function",
      "constant": true
    },
    {
      "inputs": [
        {
          "internalType": "address",
          "name": "_issuer",
          "type": "address"
        }
      ],
      "name": "getIssuer",
      "outputs": [
        {
          "internalType": "address",
          "name": "",
          "type": "address"
        }
      ],
      "stateMutability": "view",
      "type": "function",
      "constant": true
    },
    {
      "inputs": [
        {
          "internalType": "address",
          "name": "_recipient",
          "type": "address"
        }
      ],
      "name": "getRecipient",
      "outputs": [
        {
          "internalType": "address",
          "name": "",
          "type": "address"
        }
      ],
      "stateMutability": "view",
      "type": "function",
      "constant": true
    },
    {
      "inputs": [
        {
          "internalType": "string",
          "name": "_ipfsHash",
          "type": "string"
        }
      ],
      "name": "getAllRecipientOfCertificate",
      "outputs": [
        {
          "internalType": "address[]",
          "name": "",
          "type": "address[]"
        }
      ],
      "stateMutability": "view",
      "type": "function",
      "constant": true
    },
    {
      "inputs": [
        {
          "internalType": "address",
          "name": "_recipient",
          "type": "address"
        }
      ],
      "name": "getRecipientCertificates",
      "outputs": [
        {
          "internalType": "uint256[]",
          "name": "",
          "type": "uint256[]"
        }
      ],
      "stateMutability": "view",
      "type": "function",
      "constant": true
    },
    {
      "inputs": [
        {
          "internalType": "address",
          "name": "_issuer",
          "type": "address"
        }
      ],
      "name": "getIssuerCertificates",
      "outputs": [
        {
          "internalType": "uint256[]",
          "name": "",
          "type": "uint256[]"
        }
      ],
      "stateMutability": "view",
      "type": "function",
      "constant": true
    },
    {
      "inputs": [
        {
          "internalType": "uint256",
          "name": "_id",
          "type": "uint256"
        }
      ],
      "name": "getCertificateIdentifier",
      "outputs": [
        {
          "internalType": "string",
          "name": "",
          "type": "string"
        },
        {
          "internalType": "uint256",
          "name": "",
          "type": "uint256"
        },
        {
          "internalType": "address",
          "name": "",
          "type": "address"
        },
        {
          "internalType": "address",
          "name": "",
          "type": "address"
        }
      ],
      "stateMutability": "view",
      "type": "function",
      "constant": true
    }
  ],
  "bytecode": "0x608060405234801561001057600080fd5b5061234e806100206000396000f3fe608060405234801561001057600080fd5b50600436106100f55760003560e01c80637a8ee24b11610097578063bb721aab11610066578063bb721aab1461079f578063bb9c6c3e1461087a578063dda9f46d14610935578063fef03da314610a45576100f5565b80637a8ee24b1461052e5780638e959b8b146105c7578063a8badaa5146106c2578063b771600714610706576100f5565b806362812a39116100d357806362812a3914610334578063632d9ce4146103b857806370b09e24146104cc5780637323555f146104ea576100f5565b806351eeb551146100fa57806355ff0e76146101b55780635711caaf146102b0575b600080fd5b6101b36004803603602081101561011057600080fd5b810190808035906020019064010000000081111561012d57600080fd5b82018360208201111561013f57600080fd5b8035906020019184600183028401116401000000008311171561016157600080fd5b91908080601f016020809104026020016040519081016040528093929190818152602001838380828437600081840152601f19601f820116905080830192505050505050509192919290505050610ac9565b005b61026e600480360360208110156101cb57600080fd5b81019080803590602001906401000000008111156101e857600080fd5b8201836020820111156101fa57600080fd5b8035906020019184600183028401116401000000008311171561021c57600080fd5b91908080601f016020809104026020016040519081016040528093929190818152602001838380828437600081840152601f19601f820116905080830192505050505050509192919290505050610cd0565b604051808273ffffffffffffffffffffffffffffffffffffffff1673ffffffffffffffffffffffffffffffffffffffff16815260200191505060405180910390f35b6102f2600480360360208110156102c657600080fd5b81019080803573ffffffffffffffffffffffffffffffffffffffff169060200190929190505050610d63565b604051808273ffffffffffffffffffffffffffffffffffffffff1673ffffffffffffffffffffffffffffffffffffffff16815260200191505060405180910390f35b6103766004803603602081101561034a57600080fd5b81019080803573ffffffffffffffffffffffffffffffffffffffff169060200190929190505050610d96565b604051808273ffffffffffffffffffffffffffffffffffffffff1673ffffffffffffffffffffffffffffffffffffffff16815260200191505060405180910390f35b6103e4600480360360208110156103ce57600080fd5b8101908080359060200190929190505050610dff565b60405180806020018581526020018473ffffffffffffffffffffffffffffffffffffffff1673ffffffffffffffffffffffffffffffffffffffff1681526020018373ffffffffffffffffffffffffffffffffffffffff1673ffffffffffffffffffffffffffffffffffffffff168152602001828103825286818151815260200191508051906020019080838360005b8381101561048e578082015181840152602081019050610473565b50505050905090810190601f1680156104bb5780820380516001836020036101000a031916815260200191505b509550505050505060405180910390f35b6104d4610fad565b6040518082815260200191505060405180910390f35b61052c6004803603602081101561050057600080fd5b81019080803573ffffffffffffffffffffffffffffffffffffffff169060200190929190505050610fb3565b005b6105706004803603602081101561054457600080fd5b81019080803573ffffffffffffffffffffffffffffffffffffffff1690602001909291905050506111ac565b6040518080602001828103825283818151815260200191508051906020019060200280838360005b838110156105b3578082015181840152602081019050610598565b505050509050019250505060405180910390f35b610680600480360360208110156105dd57600080fd5b81019080803590602001906401000000008111156105fa57600080fd5b82018360208201111561060c57600080fd5b8035906020019184600183028401116401000000008311171561062e57600080fd5b91908080601f016020809104026020016040519081016040528093929190818152602001838380828437600081840152601f19601f820116905080830192505050505050509192919290505050611243565b604051808273ffffffffffffffffffffffffffffffffffffffff1673ffffffffffffffffffffffffffffffffffffffff16815260200191505060405180910390f35b610704600480360360208110156106d857600080fd5b81019080803573ffffffffffffffffffffffffffffffffffffffff16906020019092919050505061128c565b005b6107486004803603602081101561071c57600080fd5b81019080803573ffffffffffffffffffffffffffffffffffffffff1690602001909291905050506114a5565b6040518080602001828103825283818151815260200191508051906020019060200280838360005b8381101561078b578082015181840152602081019050610770565b505050509050019250505060405180910390f35b610878600480360360408110156107b557600080fd5b81019080803573ffffffffffffffffffffffffffffffffffffffff169060200190929190803590602001906401000000008111156107f257600080fd5b82018360208201111561080457600080fd5b8035906020019184600183028401116401000000008311171561082657600080fd5b91908080601f016020809104026020016040519081016040528093929190818152602001838380828437600081840152601f19601f82011690508083019250505050505050919291929050505061153c565b005b6109336004803603602081101561089057600080fd5b81019080803590602001906401000000008111156108ad57600080fd5b8201836020820111156108bf57600080fd5b803590602001918460018302840111640100000000831117156108e157600080fd5b91908080601f016020809104026020016040519081016040528093929190818152602001838380828437600081840152601f19601f820116905080830192505050505050509192919290505050611beb565b005b6109ee6004803603602081101561094b57600080fd5b810190808035906020019064010000000081111561096857600080fd5b82018360208201111561097a57600080fd5b8035906020019184600183028401116401000000008311171561099c57600080fd5b91908080601f016020809104026020016040519081016040528093929190818152602001838380828437600081840152601f19601f820116905080830192505050505050509192919290505050611ffe565b6040518080602001828103825283818151815260200191508051906020019060200280838360005b83811015610a31578082015181840152602081019050610a16565b505050509050019250505060405180910390f35b610a8760048036036020811015610a5b57600080fd5b81019080803573ffffffffffffffffffffffffffffffffffffffff1690602001909291905050506120f5565b604051808273ffffffffffffffffffffffffffffffffffffffff1673ffffffffffffffffffffffffffffffffffffffff16815260200191505060405180910390f35b60011515600860003373ffffffffffffffffffffffffffffffffffffffff1673ffffffffffffffffffffffffffffffffffffffff16815260200190815260200160002060009054906101000a900460ff16151514610b72576040517f08c379a000000000000000000000000000000000000000000000000000000000815260040180806020018281038252602f8152602001806122ea602f913960400191505060405180910390fd5b336001826040518082805190602001908083835b60208310610ba95780518252602082019150602081019050602083039250610b86565b6001836020036101000a038019825116818451168082178552505050505050905001915050908152602001604051809103902060006101000a81548173ffffffffffffffffffffffffffffffffffffffff021916908373ffffffffffffffffffffffffffffffffffffffff1602179055503373ffffffffffffffffffffffffffffffffffffffff167fd44cad3cdd419006c9f1ed0038d0743151290b6bf6168a5b374344aeb501c7a8826040518080602001828103825283818151815260200191508051906020019080838360005b83811015610c93578082015181840152602081019050610c78565b50505050905090810190601f168015610cc05780820380516001836020036101000a031916815260200191505b509250505060405180910390a250565b60006001826040518082805190602001908083835b60208310610d085780518252602082019150602081019050602083039250610ce5565b6001836020036101000a038019825116818451168082178552505050505050905001915050908152602001604051809103902060009054906101000a900473ffffffffffffffffffffffffffffffffffffffff169050919050565b60026020528060005260406000206000915054906101000a900473ffffffffffffffffffffffffffffffffffffffff1681565b6000600360008373ffffffffffffffffffffffffffffffffffffffff1673ffffffffffffffffffffffffffffffffffffffff16815260200190815260200160002060009054906101000a900473ffffffffffffffffffffffffffffffffffffffff169050919050565b60606000806000610e0e61215e565b60056000878152602001908152602001600020604051806080016040529081600082018054600181600116156101000203166002900480601f016020809104026020016040519081016040528092919081815260200182805460018160011615610100020316600290048015610ec55780601f10610e9a57610100808354040283529160200191610ec5565b820191906000526020600020905b815481529060010190602001808311610ea857829003601f168201915b50505050508152602001600182015481526020016002820160009054906101000a900473ffffffffffffffffffffffffffffffffffffffff1673ffffffffffffffffffffffffffffffffffffffff1673ffffffffffffffffffffffffffffffffffffffff1681526020016003820160009054906101000a900473ffffffffffffffffffffffffffffffffffffffff1673ffffffffffffffffffffffffffffffffffffffff1673ffffffffffffffffffffffffffffffffffffffff1681525050905080600001518160200151826040015183606001518393509450945094509450509193509193565b60005481565b60001515600860008373ffffffffffffffffffffffffffffffffffffffff1673ffffffffffffffffffffffffffffffffffffffff16815260200190815260200160002060009054906101000a900460ff16151514611079576040517f08c379a00000000000000000000000000000000000000000000000000000000081526004018080602001828103825260198152602001807f49737375657220616c726561647920726567697374657265640000000000000081525060200191505060405180910390fd5b80600260003373ffffffffffffffffffffffffffffffffffffffff1673ffffffffffffffffffffffffffffffffffffffff16815260200190815260200160002060006101000a81548173ffffffffffffffffffffffffffffffffffffffff021916908373ffffffffffffffffffffffffffffffffffffffff1602179055506001600860003373ffffffffffffffffffffffffffffffffffffffff1673ffffffffffffffffffffffffffffffffffffffff16815260200190815260200160002060006101000a81548160ff0219169083151502179055508073ffffffffffffffffffffffffffffffffffffffff163373ffffffffffffffffffffffffffffffffffffffff167fd235eec2ad38b3ce50de8679ab6421ab499dea2ce99903a0ec21703ad11de7e160405160405180910390a350565b6060600760008373ffffffffffffffffffffffffffffffffffffffff1673ffffffffffffffffffffffffffffffffffffffff16815260200190815260200160002080548060200260200160405190810160405280929190818152602001828054801561123757602002820191906000526020600020905b815481526020019060010190808311611223575b50505050509050919050565b6001818051602081018201805184825260208301602085012081835280955050505050506000915054906101000a900473ffffffffffffffffffffffffffffffffffffffff1681565b60001515600960003373ffffffffffffffffffffffffffffffffffffffff1673ffffffffffffffffffffffffffffffffffffffff16815260200190815260200160002060009054906101000a900460ff16151514611352576040517f08c379a000000000000000000000000000000000000000000000000000000000815260040180806020018281038252601c8152602001807f526563697069656e7420616c726561647920726567697374657265640000000081525060200191505060405180910390fd5b80600360003373ffffffffffffffffffffffffffffffffffffffff1673ffffffffffffffffffffffffffffffffffffffff16815260200190815260200160002060006101000a81548173ffffffffffffffffffffffffffffffffffffffff021916908373ffffffffffffffffffffffffffffffffffffffff1602179055506001600960008373ffffffffffffffffffffffffffffffffffffffff1673ffffffffffffffffffffffffffffffffffffffff16815260200190815260200160002060006101000a81548160ff0219169083151502179055503373ffffffffffffffffffffffffffffffffffffffff167f12cb6994eee1b3c1b1193b45b1e6aa1929a4529e3221a2a2a458f7f2c6c4801382604051808273ffffffffffffffffffffffffffffffffffffffff1673ffffffffffffffffffffffffffffffffffffffff16815260200191505060405180910390a250565b6060600660008373ffffffffffffffffffffffffffffffffffffffff1673ffffffffffffffffffffffffffffffffffffffff16815260200190815260200160002080548060200260200160405190810160405280929190818152602001828054801561153057602002820191906000526020600020905b81548152602001906001019080831161151c575b50505050509050919050565b60011515600860003373ffffffffffffffffffffffffffffffffffffffff1673ffffffffffffffffffffffffffffffffffffffff16815260200190815260200160002060009054906101000a900460ff161515146115e5576040517f08c379a000000000000000000000000000000000000000000000000000000000815260040180806020018281038252602f8152602001806122ea602f913960400191505060405180910390fd5b60011515600960008473ffffffffffffffffffffffffffffffffffffffff1673ffffffffffffffffffffffffffffffffffffffff16815260200190815260200160002060009054906101000a900460ff1615151461168e576040517f08c379a00000000000000000000000000000000000000000000000000000000081526004018080602001828103825260338152602001806122876033913960400191505060405180910390fd5b3373ffffffffffffffffffffffffffffffffffffffff166001826040518082805190602001908083835b602083106116db57805182526020820191506020810190506020830392506116b8565b6001836020036101000a038019825116818451168082178552505050505050905001915050908152602001604051809103902060009054906101000a900473ffffffffffffffffffffffffffffffffffffffff1673ffffffffffffffffffffffffffffffffffffffff161461179b576040517f08c379a000000000000000000000000000000000000000000000000000000000815260040180806020018281038252602f815260200180612258602f913960400191505060405180910390fd5b60011515600a826040518082805190602001908083835b602083106117d557805182526020820191506020810190506020830392506117b2565b6001836020036101000a038019825116818451168082178552505050505050905001915050908152602001604051809103902060009054906101000a900460ff1615151461188b576040517f08c379a00000000000000000000000000000000000000000000000000000000081526004018080602001828103825260188152602001807f4365727469666963617465206e6f74207665726966696564000000000000000081525060200191505060405180910390fd5b61189361215e565b6000806000815460010191905081905590508282600001819052504282602001818152505033826040019073ffffffffffffffffffffffffffffffffffffffff16908173ffffffffffffffffffffffffffffffffffffffff168152505083826060019073ffffffffffffffffffffffffffffffffffffffff16908173ffffffffffffffffffffffffffffffffffffffff1681525050816005600083815260200190815260200160002060008201518160000190805190602001906119589291906121b2565b506020820151816001015560408201518160020160006101000a81548173ffffffffffffffffffffffffffffffffffffffff021916908373ffffffffffffffffffffffffffffffffffffffff16021790555060608201518160030160006101000a81548173ffffffffffffffffffffffffffffffffffffffff021916908373ffffffffffffffffffffffffffffffffffffffff160217905550905050600660008573ffffffffffffffffffffffffffffffffffffffff1673ffffffffffffffffffffffffffffffffffffffff168152602001908152602001600020819080600181540180825580915050600190039060005260206000200160009091909190915055600760003373ffffffffffffffffffffffffffffffffffffffff1673ffffffffffffffffffffffffffffffffffffffff1681526020019081526020016000208190806001815401808255809150506001900390600052602060002001600090919091909150556004836040518082805190602001908083835b60208310611af65780518252602082019150602081019050602083039250611ad3565b6001836020036101000a0380198251168184511680821785525050505050509050019150509081526020016040518091039020849080600181540180825580915050600190039060005260206000200160009091909190916101000a81548173ffffffffffffffffffffffffffffffffffffffff021916908373ffffffffffffffffffffffffffffffffffffffff1602179055508373ffffffffffffffffffffffffffffffffffffffff163373ffffffffffffffffffffffffffffffffffffffff16827fb16be250054d8205b809d26284c657602bbfc725cfc68daca4dc60a78ff137a760405160405180910390a450505050565b60011515600960003373ffffffffffffffffffffffffffffffffffffffff1673ffffffffffffffffffffffffffffffffffffffff16815260200190815260200160002060009054906101000a900460ff16151514611c94576040517f08c379a00000000000000000000000000000000000000000000000000000000081526004018080602001828103825260308152602001806122ba6030913960400191505060405180910390fd5b600073ffffffffffffffffffffffffffffffffffffffff166001826040518082805190602001908083835b60208310611ce25780518252602082019150602081019050602083039250611cbf565b6001836020036101000a038019825116818451168082178552505050505050905001915050908152602001604051809103902060009054906101000a900473ffffffffffffffffffffffffffffffffffffffff1673ffffffffffffffffffffffffffffffffffffffff161415611dc0576040517f08c379a000000000000000000000000000000000000000000000000000000000815260040180806020018281038252601a8152602001807f4365727469666963617465206e6f74207265676973746572656400000000000081525060200191505060405180910390fd5b60001515600a826040518082805190602001908083835b60208310611dfa5780518252602082019150602081019050602083039250611dd7565b6001836020036101000a038019825116818451168082178552505050505050905001915050908152602001604051809103902060009054906101000a900460ff1615151415611f79576001600a826040518082805190602001908083835b60208310611e7b5780518252602082019150602081019050602083039250611e58565b6001836020036101000a038019825116818451168082178552505050505050905001915050908152602001604051809103902060006101000a81548160ff0219169083151502179055503373ffffffffffffffffffffffffffffffffffffffff167f688f729470818919bdcaed63badd8716472e599d7643926c86b84e1c20835310826040518080602001828103825283818151815260200191508051906020019080838360005b83811015611f3e578082015181840152602081019050611f23565b50505050905090810190601f168015611f6b5780820380516001836020036101000a031916815260200191505b509250505060405180910390a25b6001600a826040518082805190602001908083835b60208310611fb15780518252602082019150602081019050602083039250611f8e565b6001836020036101000a038019825116818451168082178552505050505050905001915050908152602001604051809103902060006101000a81548160ff02191690831515021790555050565b60606004826040518082805190602001908083835b602083106120365780518252602082019150602081019050602083039250612013565b6001836020036101000a03801982511681845116808217855250505050505090500191505090815260200160405180910390208054806020026020016040519081016040528092919081815260200182805480156120e957602002820191906000526020600020905b8160009054906101000a900473ffffffffffffffffffffffffffffffffffffffff1673ffffffffffffffffffffffffffffffffffffffff168152602001906001019080831161209f575b50505050509050919050565b6000600260008373ffffffffffffffffffffffffffffffffffffffff1673ffffffffffffffffffffffffffffffffffffffff16815260200190815260200160002060009054906101000a900473ffffffffffffffffffffffffffffffffffffffff169050919050565b60405180608001604052806060815260200160008152602001600073ffffffffffffffffffffffffffffffffffffffff168152602001600073ffffffffffffffffffffffffffffffffffffffff1681525090565b828054600181600116156101000203166002900490600052602060002090601f016020900481019282601f106121f357805160ff1916838001178555612221565b82800160010185558215612221579182015b82811115612220578251825591602001919060010190612205565b5b50905061222e9190612232565b5090565b61225491905b80821115612250576000816000905550600101612238565b5090565b9056fe497373756572206e6f74207265676973746572656420746f2069737375652074686973206365727469666963617465526563697069656e74206e6f74207265676973746572656420746f206265206973737565642061206365727469666963617465526563697069656e74206e6f74207265676973746572656420746f207665726966792061206365727469666963617465497373756572206e6f74207265676973746572656420746f2072656769737465722061206365727469666963617465a26469706673582212208a645b0515ff402ddc4dc1893e099c7455a6ea5e36a5a14d6bc498add88ceca864736f6c63430006010033",
  "source": "// SPDX-License-Identifier: MIT\r\npragma solidity >=0.4.22 <0.9.0;\r\n\r\ncontract Certificates {\r\n    uint public certificate_counter;\r\n\r\n    // Structs\r\n    struct Certificate {\r\n        string ipfsHash;\r\n        uint timeOfIssue;\r\n        address issuer;\r\n        address recipient;\r\n    }\r\n\r\n    // Mappings\r\n    mapping(string => address) public issuerOfCertificate;\r\n    mapping(address => address) public issuer;\r\n    mapping(address => address) recipient;\r\n    mapping(string => address[]) allRecipientOfCertificate;\r\n    mapping(uint => Certificate) certificateIdentifier;\r\n    mapping(address => uint[]) recipientCertificates;\r\n    mapping(address => uint[]) issuerCertificates;\r\n    mapping(address => bool) isIssuer;\r\n    mapping(address => bool) isRecipient;\r\n    mapping(string => bool) isVerified;\r\n\r\n    // Events\r\n    event IssuerRegistered(address indexed issuer, address indexed issuerPK);\r\n    event RecipientRegistered(address indexed recipient, address studentPK);\r\n    event CertificateRegistered(address indexed issuer, string _ipfsHash);\r\n    event CertificateVerified(address indexed issuer, string _ipfsHash);\r\n    event CertificateIssued(uint indexed certificate, address indexed issuer, address indexed recipient);\r\n\r\n    // Functions\r\n    function registerIssuer(address issuerPK) public {\r\n        // require((isIssuer[msg.sender] == true), \"Illegal operation\");\r\n        require((isIssuer[issuerPK] == false), \"Issuer already registered\");\r\n        issuer[msg.sender] = issuerPK;\r\n        isIssuer[msg.sender] = true;\r\n        emit IssuerRegistered(msg.sender, issuerPK);\r\n    }\r\n\r\n    function registerRecipient(address studentPK) public {\r\n        require(isRecipient[msg.sender] == false, \"Recipient already registered\");\r\n        recipient[msg.sender] = studentPK;\r\n        isRecipient[studentPK] = true;\r\n        emit RecipientRegistered(msg.sender, studentPK);\r\n    }\r\n\r\n    function registerCertificate(string memory _ipfsHash) public {\r\n        require(isIssuer[msg.sender] == true, \"Issuer not registered to register a certificate\");\r\n        issuerOfCertificate[_ipfsHash] = msg.sender;\r\n        emit CertificateRegistered(msg.sender, _ipfsHash);\r\n    }\r\n\r\n    function issueCertificate(address _recipient, string memory certificate_hash) public {\r\n        require(isIssuer[msg.sender] == true, \"Issuer not registered to register a certificate\");\r\n        require(isRecipient[_recipient] == true, \"Recipient not registered to be issued a certificate\");\r\n        require(issuerOfCertificate[certificate_hash] == msg.sender, \"Issuer not registered to issue this certificate\");\r\n        require(isVerified[certificate_hash] == true, \"Certificate not verified\");\r\n        Certificate memory cert;\r\n        uint id = ++certificate_counter;\r\n        cert.ipfsHash = certificate_hash;\r\n        cert.timeOfIssue = block.timestamp;\r\n        cert.issuer = msg.sender;\r\n        cert.recipient = _recipient;\r\n        certificateIdentifier[id] = cert;\r\n        recipientCertificates[_recipient].push(id);\r\n        issuerCertificates[msg.sender].push(id);\r\n        allRecipientOfCertificate[certificate_hash].push(_recipient);\r\n\r\n        emit CertificateIssued(id, msg.sender, _recipient);\r\n    }\r\n    \r\n    function verify(string memory certificate_hash) public {\r\n        require(isRecipient[msg.sender] == true, \"Recipient not registered to verify a certificate\");\r\n        require(issuerOfCertificate[certificate_hash] != address(0), \"Certificate not registered\");\r\n        // require(allRecipientOfCertificate[certificate_hash].length > 0, \"Certificate not issued to any recipient\");\r\n        if(isVerified[certificate_hash] == false) {\r\n            isVerified[certificate_hash] = true;\r\n            emit CertificateVerified(msg.sender, certificate_hash);\r\n        }\r\n        isVerified[certificate_hash] = true;\r\n    }\r\n\r\n    function getIssuerOfCertificate(string memory _ipfsHash) public view returns (address) {\r\n        return issuerOfCertificate[_ipfsHash];\r\n    }\r\n\r\n    function getIssuer(address _issuer) public view returns (address) {\r\n        return issuer[_issuer];\r\n    }\r\n\r\n    function getRecipient(address _recipient) public view returns (address) {\r\n        return recipient[_recipient];\r\n    }\r\n\r\n    function getAllRecipientOfCertificate(string memory _ipfsHash) public view returns (address[] memory) {\r\n        return allRecipientOfCertificate[_ipfsHash];\r\n    }\r\n\r\n    function getRecipientCertificates(address _recipient) public view returns (uint[] memory) {\r\n        return recipientCertificates[_recipient];\r\n    }\r\n\r\n    function getIssuerCertificates(address _issuer) public view returns (uint[] memory) {\r\n        return issuerCertificates[_issuer];\r\n    }\r\n\r\n    function getCertificateIdentifier(uint _id) public view returns (string memory, uint, address, address){\r\n        Certificate memory cert = certificateIdentifier[_id];\r\n        return (cert.ipfsHash, cert.timeOfIssue, cert.issuer, cert.recipient);\r\n    }\r\n\r\n}",
  "sourcePath": "A:\\BTP-BlockChain-Certificate-Management\\contracts\\Certificates.sol",
  "compiler": {
    "name": "solc",
    "version": "0.6.1+commit.e6f7d5a4.Emscripten.clang"
  },
  "schemaVersion": "3.4.3",
  "updatedAt": "2021-12-16T15:00:21.533Z",
  "networkType": "ethereum",
  "devdoc": {
    "methods": {}
  },
  "userdoc": {
    "methods": {}
  }
}