{
  "contractName": "Users",
  "abi": [
    {
      "anonymous": false,
      "inputs": [
        {
          "indexed": true,
          "internalType": "address",
          "name": "_address",
          "type": "address"
        },
        {
          "indexed": false,
          "internalType": "bytes32",
          "name": "_pseudo",
          "type": "bytes32"
        }
      ],
      "name": "UserCreated",
      "type": "event"
    },
    {
      "anonymous": false,
      "inputs": [
        {
          "indexed": true,
          "internalType": "address",
          "name": "_address",
          "type": "address"
        }
      ],
      "name": "UserDestroyed",
      "type": "event"
    },
    {
      "inputs": [
        {
          "internalType": "address",
          "name": "",
          "type": "address"
        }
      ],
      "name": "users",
      "outputs": [
        {
          "internalType": "bytes32",
          "name": "",
          "type": "bytes32"
        }
      ],
      "stateMutability": "view",
      "type": "function"
    },
    {
      "inputs": [
        {
          "internalType": "address",
          "name": "_address",
          "type": "address"
        }
      ],
      "name": "exists",
      "outputs": [
        {
          "internalType": "bool",
          "name": "_exists",
          "type": "bool"
        }
      ],
      "stateMutability": "view",
      "type": "function"
    },
    {
      "inputs": [],
      "name": "authenticate",
      "outputs": [
        {
          "internalType": "bytes32",
          "name": "_pseudo",
          "type": "bytes32"
        }
      ],
      "stateMutability": "view",
      "type": "function"
    },
    {
      "inputs": [
        {
          "internalType": "bytes32",
          "name": "_pseudo",
          "type": "bytes32"
        }
      ],
      "name": "create",
      "outputs": [],
      "stateMutability": "nonpayable",
      "type": "function"
    },
    {
      "inputs": [],
      "name": "destroy",
      "outputs": [],
      "stateMutability": "nonpayable",
      "type": "function"
    },
    {
      "inputs": [
        {
          "internalType": "address",
          "name": "_address",
          "type": "address"
        }
      ],
      "name": "get",
      "outputs": [
        {
          "internalType": "bytes32",
          "name": "_pseudo",
          "type": "bytes32"
        }
      ],
      "stateMutability": "view",
      "type": "function"
    }
  ],
  "bytecode": "0x608060405234801561001057600080fd5b50610444806100206000396000f3fe608060405234801561001057600080fd5b50600436106100625760003560e01c8063380c7a67146100675780637368a8ce1461008557806383197ef0146100b3578063a87430ba146100bd578063c2bc2efc14610115578063f6a3d24e1461016d575b600080fd5b61006f6101c9565b6040518082815260200191505060405180910390f35b6100b16004803603602081101561009b57600080fd5b8101908080359060200190929190505050610221565b005b6100bb6102b5565b005b6100ff600480360360208110156100d357600080fd5b81019080803573ffffffffffffffffffffffffffffffffffffffff16906020019092919050505061034e565b6040518082815260200191505060405180910390f35b6101576004803603602081101561012b57600080fd5b81019080803573ffffffffffffffffffffffffffffffffffffffff169060200190929190505050610366565b6040518082815260200191505060405180910390f35b6101af6004803603602081101561018357600080fd5b81019080803573ffffffffffffffffffffffffffffffffffffffff1690602001909291905050506103c0565b604051808215151515815260200191505060405180910390f35b60006101d4336103c0565b6101dd57600080fd5b6000803373ffffffffffffffffffffffffffffffffffffffff1673ffffffffffffffffffffffffffffffffffffffff16815260200190815260200160002054905090565b806000803373ffffffffffffffffffffffffffffffffffffffff1673ffffffffffffffffffffffffffffffffffffffff168152602001908152602001600020819055503373ffffffffffffffffffffffffffffffffffffffff167f18ec7dd8c4d713eb3c2e0c61825f878a47e207600626611c5bc15009c743b4b6826040518082815260200191505060405180910390a250565b6102be336103c0565b6102c757600080fd5b6000803373ffffffffffffffffffffffffffffffffffffffff1673ffffffffffffffffffffffffffffffffffffffff168152602001908152602001600020600090553373ffffffffffffffffffffffffffffffffffffffff167f36539d9970f057e4d26f828835b69fcfff15ff997f804dace8aed405cb98455f60405160405180910390a2565b60006020528060005260406000206000915090505481565b6000610371826103c0565b61037a57600080fd5b6000808373ffffffffffffffffffffffffffffffffffffffff1673ffffffffffffffffffffffffffffffffffffffff168152602001908152602001600020549050919050565b60008060001b6000808473ffffffffffffffffffffffffffffffffffffffff1673ffffffffffffffffffffffffffffffffffffffff168152602001908152602001600020541415905091905056fea26469706673582212205fcfdc6418d602c437c27ce11efb440fa7f1b9e26e6c1a0f19ab5a62d25963e064736f6c63430006010033",
  "source": "// SPDX-License-Identifier: MIT\r\npragma solidity >=0.4.22 <0.9.0;\r\n\r\ncontract Users {\r\n\r\n  mapping(address => bytes32) public users;\r\n\r\n  event UserCreated(address indexed _address, bytes32 _pseudo);\r\n  event UserDestroyed(address indexed _address);\r\n\r\n  function exists (address _address) public view returns (bool _exists) {\r\n    return (users[_address] != bytes32(0));\r\n  }\r\n\r\n  function authenticate () public view returns (bytes32 _pseudo) {\r\n    require(exists(msg.sender));\r\n    return (users[msg.sender]);\r\n  }\r\n\r\n  function create (bytes32 _pseudo) public {\r\n    users[msg.sender] = _pseudo ;\r\n    emit UserCreated(msg.sender, _pseudo);\r\n  }\r\n\r\n  function destroy () public {\r\n    require(exists(msg.sender));\r\n    delete users[msg.sender];\r\n    emit UserDestroyed(msg.sender);\r\n  }\r\n\r\n  function get (address _address) public view returns(bytes32 _pseudo) {\r\n    require(exists(_address));\r\n    return (users[_address]);\r\n  }\r\n\r\n}",
  "sourcePath": "F:\\Online\\BTP Project\\draft2\\contracts\\Users.sol",
  "compiler": {
    "name": "solc",
    "version": "0.6.1+commit.e6f7d5a4.Emscripten.clang"
  },
  "schemaVersion": "3.4.3",
  "updatedAt": "2021-10-01T07:18:17.980Z",
  "networkType": "ethereum",
  "devdoc": {
    "methods": {}
  },
  "userdoc": {
    "methods": {}
  }
}